:1000000070050020C1000000F3000000F5000000B2
:1000100000000000000000000000000000000000E0
:10002000000000000000000000000000F7000000D9
:100030000000000000000000F9000000FB000000CC
:10004000FD000000FF0000000101000003010000AE
:100050000501000000000000070100000901000088
:100060000B01000000000000000000000000000084
:1000700000000000000000000D0100000F01000062
:10008000000000001101000000000000000000005E
:100090000000000000000000000000000000000060
:1000A0000000000000000000000000000000000050
:1000B0000000000000000000000000000000000040
:1000C00014481549154A03E003680B6004300431F5
:1000D0009142F9DB1249134A0020914203D0086093
:1000E00004319142FBD110488546104880471048A2
:1000F0000047FEE7FEE7FEE7FEE7FEE7FEE7FEE776
:10010000FEE7FEE7FEE7FEE7FEE7FEE7FEE7FEE7C7
:10011000FEE7C046D8180000000000202C00002098
:100120002C0000202C000020700500207D12000013
:1001300065120000002243088B4274D303098B42EE
:100140005FD3030A8B4244D3030B8B4228D3030CA7
:100150008B420DD3FF22090212BA030C8B4202D349
:100160001212090265D0030B8B4219D300E0090A71
:10017000C30B8B4201D3CB03C01A5241830B8B427A
:1001800001D38B03C01A5241430B8B4201D34B0363
:10019000C01A5241030B8B4201D30B03C01A5241C8
:1001A000C30A8B4201D3CB02C01A5241830A8B424D
:1001B00001D38B02C01A5241430A8B4201D34B0236
:1001C000C01A5241030A8B4201D30B02C01A52419A
:1001D000CDD2C3098B4201D3CB01C01A524183094E
:1001E0008B4201D38B01C01A524143098B4201D388
:1001F0004B01C01A524103098B4201D30B01C01AB3
:100200005241C3088B4201D3CB00C01A524183082C
:100210008B4201D38B00C01A524143088B4201D359
:100220004B00C01A5241411A00D2014652411046B9
:100230007047FFE701B5002000F006F802BDC04698
:100240000029F7D076E770477047C04680B582B086
:1002500000AF78607B681B681800BD4602B080BDA7
:1002600080B584B000AF786039607B68FB60FB6864
:100270003A681A60C046BD4604B080BD80B582B001
:1002800000AF78600A00FB1C1A70C0467B68083318
:100290001800FFF7DBFF030008221340082BF5D0FE
:1002A0007B681A1DFB1C1B7819001000FFF7D8FF94
:1002B000C046BD4602B080BD80B582B000AF02002E
:1002C000FB1D1A70FB1D1B78044A19001000FFF774
:1002D000D5FFC046BD4602B080BDC04600006040AC
:1002E00080B582B000AF786008E07B681B785BB2B5
:1002F0001800FFF7E1FF7B6801337B607B681B78A8
:100300005BB2002BF1D1C046C046BD4602B080BDF5
:1003100080B582B000AF786039600A4B1B68002B53
:1003200005D0084B1B6839687A6810009847C046AA
:10033000054B1B68002BFBD1C046C046BD4602B032
:1003400080BDC04658000020D818000080B584B099
:1003500000AF786039603B681B69002B1AD07B685E
:10036000002B17D03B681A683B685B689A4211DA29
:100370003B681B68FB6008E03B681B7B5BB21800B6
:10038000FFF79AFFFB680133FB603B685B68FA6824
:100390009A42F1DBC046BD4604B080BD80B584B052
:1003A00000AF786039607B68FB60FB68002B07D08A
:1003B000FB68180000F06EFF03001A003B681A602B
:1003C0003B685B695A425341DBB21A003B68190033
:1003D0001000FFF7BBFF0DE03B689B685A1E3B68AF
:1003E0009A60FB681B785BB21800FFF765FFFB683B
:1003F0000133FB60FB681B785BB2002B03D03B68CA
:100400009B68002BE8D13B685B693A6811001800D3
:10041000FFF79CFFC046BD4604B080BD90B595B0C7
:1004200000AFF860B9607A601023FB18454A13CA20
:1004300013C31168196012791A710023BB6408E0B4
:100440002423FA18BB6CD31830221A70BB6C01330A
:10045000BB64BB6C1F2BF3DD7B689B69002B0BD14E
:10046000BB680A2B08D1FB68002B05DA0123FB646B
:10047000FB685B427B6403E0FB687B640023FB64F6
:100480000023BB64BA687B6C11001800FFF7D8FE2C
:100490000B001A001023FB18995624243A19BB6C40
:1004A000D3180A1C1A70BB6C0133BB64BB681900FB
:1004B000786CFFF73FFE03007B647B6C002BE1D17F
:1004C000FB6C002B07D03A19BB6CD3182D221A7085
:1004D000BB6C0133BB6424217A18BB6CD318002297
:1004E0001A70BB6C013BBB647B18180000F0D2FE95
:1004F00003001A007B681A607B685B695A425341AB
:10050000DBB21A007B6819001000FFF71FFF0BE039
:100510002423FA18BB6CD3181B785BB21800FFF7C2
:10052000CBFEBB6C013BBB64BB6C002BF0DA7B6881
:100530005B697A6811001800FFF708FFC046BD46E6
:1005400015B090BDF012000080B586B000AF7860A5
:1005500000233B6100237B617B681B68FB60FB68B9
:10056000002B3CD0FB681B785BB25A1C214BD31884
:100570001B785BB2DBB21A00042313403B612EE010
:10058000FB68002B1ED07A6913009B009B185B0050
:100590001A00FB681B785BB2303BD3187B61FB68A9
:1005A0000133FB60FB68002B0CD0FB681B785BB24F
:1005B0005A1C104BD3181B785BB2DBB21A00042311
:1005C00013403B61FB681B785BB25A1C094BD31884
:1005D0001B785BB2DBB21A00042313403B613B691A
:1005E000002BCDD17B68FA681A607B691800BD4684
:1005F00006B080BDD41700000FB480B58EB000AF38
:100600003B6C7B604423FB18BB601BE17B681B7861
:100610005BB2252B09D07B681B785BB21800FFF713
:100620004BFE7B6801337B600CE100233B630C21B4
:100630007B1800229A617B1800225A617B180022E5
:100640001A617B1820221A737B18864A9A607B18DD
:1006500000225A607B1800221A607B68002B02D0AF
:100660007B6801337B607B68002B05D07A682F2381
:10067000FB1812781A7004E07A682F23FB1812789E
:100680001A702F23FB181B785BB25A1C764BD318B9
:100690001B785BB2DBB21A00042313402BD03B6BF8
:1006A000002B08D03B1D1800FFF74EFF02000C2363
:1006B000FB189A6018E02F23FB181B785BB2302BD5
:1006C00003D10C23FB1830221A737B68002B07D050
:1006D0003B1D1800FFF738FF02000C23FB185A607F
:1006E0000C23FB1801221A617B68002BB5D07B68B4
:1006F000013B7B60B1E72F23FB181B785BB2BB6229
:10070000BB6A5A1C584BD3181B785BB2DBB21A0079
:1007100003231340012B02D1BB6A203300E0BB6AE4
:10072000253B532B00D980E09A00504BD3181B680F
:100730009F462520FFF7C0FD01237B6378E00C2353
:10074000FB1801225A6100237B6371E001233B63A4
:1007500000237B636CE000237B6369E00C23FB18C0
:1007600001229A61BB681A1DBA601B680C22BA1874
:100770000A211800FFF752FE01237B6358E00C2189
:100780007B1801229A61BB681A1DBA601B687A182F
:1007900010211800FFF742FE01237B6348E0BB688D
:1007A0001A1DBA601B680C22BA1811001800FFF756
:1007B000F5FD01237B633BE0BB681A1DBA601B6833
:1007C0005BB21800FFF778FD01237B6330E07B68A4
:1007D0001B785BB2722B10D01ADC6E2B11D017DC99
:1007E000612B02D0682B04D012E00720FFF764FDD4
:1007F00015E00820FFF760FD11E00D20FFF75CFD1C
:100800000DE00D20FFF758FD0A20FFF755FD06E02B
:100810007B681B785BB21800FFF74EFDC0467B6813
:1008200001337B6000237B6302E001237B63C046CE
:100830007B6B012B00D010E77B68002B02D07B681C
:1008400001337B607B68002B05D07B681B785BB233
:10085000002B00D0DAE6C046BD460EB080BC08BC16
:1008600004B01847FF7F0000D417000004130000F5
:1008700080B582B000AF78607B681B681800BD4609
:1008800002B080BD80B584B000AF786039607B680D
:10089000FB60FB683A681A60C046BD4604B080BD84
:1008A00080B584B000AFF860B9607A60FB68002B57
:1008B00012D0104B00221A60FB687A681A60BB687D
:1008C0009A68FB689A60BB68DA68FB68DA60FB6864
:1008D000094A5A60002308E0084B79211800FFF705
:1008E00017FD044B01221A6000231800BD4604B016
:1008F00080BDC0462C0000201111111154140000BD
:1009000080B584B000AFF860B9607A60FB68002BF6
:1009100008D0224B00221A60FB685B68204A934291
:1009200010D108E01F4B9E211800FFF7F1FC1B4B74
:1009300001221A602FE0194B00221A60BB68012BBC
:1009400010D008E0174B9F211800FFF7E1FC134B74
:1009500001221A601FE0BB68022B13D1FB68DB6821
:10096000012B0FD10D4B00221A60FB681A68BB687F
:10097000013BDB00D31804337A6811001800FFF73D
:1009800081FF08E0074BA0211800FFF7C1FC034BD3
:1009900001221A60C046BD4604B080BD2C00002074
:1009A000111111115414000080B582B000AF7860AD
:1009B00039607B68002B08D0224B00221A607B68CC
:1009C0005B68214A934211D109E0204BD6211800DF
:1009D000FFF79EFC1B4B01221A6000232EE0194BEF
:1009E00000221A603B68012B11D009E0174BD72178
:1009F0001800FFF78DFC134B01221A6000231DE045
:100A00003B68022B11D17B68DB68012B0DD10D4BAC
:100A100000221A607B681A683B68013BDB00D31830
:100A20001800FFF725FF030008E0084BD821180045
:100A3000FFF76EFC034B01221A6000231800BD462D
:100A400002B080BD2C0000201111111154140000BF
:100A500080B584B000AFF860B9607A60FB68002BA5
:100A600008D0224B00221A60FB685B68204A934240
:100A700010D108E01F4BF2211800FFF749FC1B4B77
:100A800001221A602EE0194B00221A60BB68012B6C
:100A900010D008E0174BF3211800FFF739FC134B77
:100AA00001221A601EE0BB68022B12D1FB68DB68D2
:100AB000012B0ED10D4B00221A60FB681A68BB682F
:100AC000013BDB00D3187A6811001800FFF7DAFE4B
:100AD00008E0084BF4211800FFF71AFC034B012231
:100AE0001A60C046BD4604B080BDC0462C00002040
:100AF000111111115414000080B584B000AF020030
:100B0000BB1D1A800023FB600023BB6010E00C4B70
:100B1000BA681201D35ABA1D12889A4205D1BB682D
:100B20001A01074BD318FB6005E0BB680133BB60BB
:100B3000BB68002BEBDDFB681800BD4604B080BD30
:100B4000DC18000080B584B000AF78600A00BB1CE0
:100B50001A807B68002B0DD0144B00221A60BB1C3E
:100B60001B881800FFF7C8FF0300FB60FB68002B21
:100B70000FD109E00E4B8B211800FFF7C9FB0B4B7F
:100B800001221A6000230CE07B6800225A600223D5
:100B900007E0FB685A68F9687B681800FFF780FE79
:100BA00003001800BD4604B080BDC0462C000020E4
:100BB0007414000080B582B000AF7860C0467B68D6
:100BC0005A1E7A60002BFAD1034B1800FFF714FD70
:100BD000C046BD4602B080BD9814000080B58EB0FE
:100BE00000AF00F0ADF9C34B1800FFF705FD002181
:100BF000022000F00DFAC04B1800FFF7FDFC0121A8
:100C0000012000F005FABD4B1800FFF7F5FC00F0DD
:100C100057FABB4B1800FFF7EFFCBA4B1800FFF771
:100C2000C9FFB94B1800FFF7E7FCC046012000F0F0
:100C3000CBF90300012BF9D0B44B1800FFF7DCFC13
:100C4000B34B1800FFF7B6FF0021012000F0E0F9D8
:100C5000B04B1800FFF7D0FCC046012000F0B4F9FB
:100C6000031EFAD0AC4B1800FFF7C6FCA54B1800CA
:100C7000FFF7A0FF0121012000F0CAF99F4B1800E7
:100C8000FFF7BAFC0121022000F0C2F900237B63C8
:100C90000CE000F099FA030019001823FA187B6B96
:100CA000D3180A1C1A707B6B01337B637B6B052B9B
:100CB000EFD90021022000F0ABF9984B1800FFF7A4
:100CC0009BFC00237B630DE01823FA187B6BD31881
:100CD0001B781A00924B11001800FFF78DFC7B6BFC
:100CE00001337B637B6B052BEED90021012000F0E3
:100CF0008FF98C4B1800FFF77FFC824B1800FFF731
:100D000059FF0121012000F083F9874B1800FFF7FC
:100D100073FC7C4B1800FFF74DFF0021012000F011
:100D200077F9804B1800FFF767FC764B1800FFF748
:100D300041FF0121012000F06BF97B4B1800FFF708
:100D40005BFCFA239B001800FFF734FF012102200F
:100D500000F05EF900233B630CE000F035FA03007D
:100D600019001023FA183B6BD3180A1C1A703B6B3E
:100D700001333B633B6B052BEFD90021022000F0D0
:100D800047F96A4B1800FFF737FC00233B630DE07F
:100D90001023FA183B6BD3181B781A00604B110014
:100DA0001800FFF729FC3B6B01333B633B6B052BC2
:100DB000EED9FA239B001800FFF7FCFE002101206A
:100DC00000F026F9574B1800FFF716FCFA239B009A
:100DD0001800FFF7EFFE0A23FB6215E06420FFF71F
:100DE000E9FE012000F0F0F8031E0DD101210120E1
:100DF00000F00EF9C046012000F0E6F8031EFAD01C
:100E00000021012000F004F9FB6A5A1EFA62002B4F
:100E1000E4D10121012000F0FBF8434B1800FFF75B
:100E2000EBFB0221022000F0F3F80823FB18404AF4
:100E30001168196092889A800023BB620AE0082337
:100E4000FA18BB6AD3181B78180000F0DDF9BB6AEA
:100E50000133BB62BB6A052BF1D90021022000F0EF
:100E6000D7F8FA239B001800FFF7A4FE0021012009
:100E700000F0CEF82F4B1800FFF7BEFBC046012054
:100E800000F0A2F80300012BF9D0C046012000F0C9
:100E90009BF8031EFAD00121012000F0B9F8264B7F
:100EA0001800FFF7A9FB022000F08EF803003B6258
:100EB0000221022000F0ACF83B001D4A11681960C5
:100EC00092889A8000237B6209E03A007B6AD318FB
:100ED0001B78180000F098F97B6A01337B627B6A0B
:100EE000052BF2D93A6A154B11001800FFF784FB65
:100EF000FEE7C046A8140000BC140000DC1400008B
:100F0000F41400001027000008150000241500004C
:100F1000A08601003815000060150000781500005B
:100F200098150000A0150000AC150000B8150000D1
:100F30000C160000D4150000E0150000EC150000B0
:100F400080B582B000AF1B4B5A681A491A4B180083
:100F5000FFF7A6FC03007B607B68002B07D07A6854
:100F6000164B11001800FFF747FB01231DE0124B41
:100F700000211800FFF7E6FD03007B607B68002B73
:100F800007D07A680E4B11001800FFF735FB0123DC
:100F90000BE00C4B1800FFF72FFB01235A42064BC6
:100FA00001211800FFF7ACFC00231800BD4602B079
:100FB00080BDC046EC1800005C0000201416000044
:100FC000341600005416000080B584B000AF020053
:100FD000FB1D1A700D4B01211800FFF7E5FC030003
:100FE000FB60FB1D1B78022B01D1FB680AE0FB1D97
:100FF0001B78012B04D1FB68DB080122134001E0C0
:1010000001235B421800BD4604B080BD5C00002097
:1010100080B584B000AF02003960FB1D1A70022059
:10102000FFF7D2FF0300FB60FB681B02FB60FB1DA8
:101030001B78032B19D01ADC012B02D0022B0AD00B
:1010400015E0FB680F4A1340FB603B681B02FA681F
:101050001343FB600CE0FB680B4A1340FB603B68EA
:101060001B03FA681343FB6002E0C04600E0C04681
:10107000FA68064B01211800FFF7EAFCC046BD469E
:1010800004B080BDFFFEFFFFFFCFFFFF5C0000202C
:1010900080B582B000AF78607B681B681800BD46E1
:1010A00002B080BD80B584B000AF786039607B68E5
:1010B000FB60FB683A681A60C046BD4604B080BD5C
:1010C00080B584B000AF0023BB6000237B60354B4C
:1010D0001B6840330A211800FFF7E4FF324B180069
:1010E000FFF78AFA2F4B1B6860331800FFF7D0FF19
:1010F00003003B603B68182213433B60294B1B688D
:1011000060333A6811001800FFF7CCFF274B180036
:10111000FFF772FA0023FB6010E0FB68DBB21033CC
:10112000D9B2234AFB68D3180A1C1A70214AFB68FB
:10113000D31811221A70FB680133FB60FB68102B77
:10114000EBD91D4B1800FFF757FA164B1B6860339D
:101150001800FFF79DFF03003B603B6862221343CA
:101160003B603B68154A13403B600E4B1B68603385
:101170003A6811001800FFF795FF114B1800FFF7B0
:101180003BFA084B1B681C3300211800FFF78AFF4D
:101190000C4B1800FFF730FA00231800BD4604B0CE
:1011A00080BDC046FC1800007016000090170000BB
:1011B00030000020440000209C170000FFFEFFFFCD
:1011C000A8170000B417000080B582B000AFC04679
:1011D0000C4B1B6864331800FFF75AFF0300012211
:1011E0001340012BF4D0074B1B686C331800FFF73A
:1011F0004FFF0200FB1D1A70FB1D1B781800BD4637
:1012000002B080BDFC18000080B582B000AF0200C3
:10121000FB1D1A70C046124B1B6864331800FFF7A1
:1012200037FF030008221340012BF4D00C4B1B683E
:1012300068331A00FB1D1B7819001000FFF732FFFE
:10124000C046074B1B6864331800FFF721FF0300FB
:1012500004221340F5D0C046C046BD4602B080BD52
:10126000FC18000080B500AF034B1800FFF738F8FA
:10127000FFF7B4FCFEE7C046C017000080B500AF22
:10128000024B034A1A60C046BD4680BD00190000EB
:1012900040787D0110B583070AD00300032102E0E6
:1012A00001330B4205D01A78002AF9D1181A10BD63
:1012B000030019680C4A0D4C8A188A4322420FD148
:1012C0005968094A04338A188A43224208D1596866
:1012D000054A04338A188A432242F1D000E00133E0
:1012E0001A78002AFBD1E1E7FFFEFEFE80808080B5
:1012F000303132333435363738394142434445464C
:1013000000000000320700002A0800002A08000040
:101310002A0800002A0800002A0800002A08000005
:101320002A0800003E0700004C0700002A080000C1
:101330002A0800002A0800002A0800002A080000E5
:101340002A0800002A0800002A0800002A080000D5
:101350002A0800002A0800002A0800002A080000C5
:101360002A0800002A0800002A0800002A080000B5
:101370002A0800002A0800002A0800002A080000A5
:101380002A0800002A0800002A0800002A08000095
:101390002A0800002A0800002A0800002A08000085
:1013A0002A0800002A0800002A0800002A08000075
:1013B0002A0800002A0800002A0800002A08000065
:1013C0002A0800002A0800002A0800002A08000055
:1013D0007E0700002A0800002A0800002A080000F2
:1013E000CE0700002A0800002A0800002A08000092
:1013F0002A0800002A0800002A080000B807000098
:10140000640700002A0800002A0800002A080000DB
:101410002A080000640700002A0800002A080000CB
:10142000560700002A0800002A0800002A080000C9
:101430007E0700002A0800002A0800009E0700001E
:101440002A0800005C0700002A0800002A080000A3
:101450007E0700002E2E2F7372632F6770696F5FF7
:1014600076345F342F7372632F786770696F2E63E1
:10147000000000002E2E2F7372632F6770696F5F5C
:1014800076345F342F7372632F786770696F5F7380
:10149000696E69742E6300000A0D616674657220BE
:1014A00064656C61790000000A0D4D43553A206770
:1014B00070696F20696E6974200000000A0D4D4349
:1014C000553A2073657420636F6D6D207374617479
:1014D0006520746F204750494F2000000A0D4D438E
:1014E000553A20736574204853492068696768201D
:1014F000000000000A0D4D43553A207370692069C1
:101500006E697420000000000A0D4D43553A2077A3
:1015100061697420666F722048534F206C6F77208A
:10152000000000000A0D4D43553A206765742048BD
:10153000534F206C6F7720000A0D4D43553A2073AE
:10154000657420485349206C6F77203B2077616990
:101550007420666F722048534F20686967680000E6
:101560000A0D4D43553A206765742048534F206853
:1015700069676820000000000A0D53504920726519
:10158000636569766520534520636D6420686561F5
:10159000646572203A0000002532782000000000C7
:1015A0000A0D485349206C6F772000000A0D4853FC
:1015B00049206869676820000A0D53504920726508
:1015C000636569766520534520636D6420646174AA
:1015D00061203A000A0D485349206C6F77000000E3
:1015E0000A0D485349206869676800000D0A2047C2
:1015F00050494F7772697465204D49534F20696E89
:10160000707574203A20253878200000060000907C
:10161000AA5500004572726F723A20584770696F80
:101620005F436667496E697469616C697A652025F4
:10163000640D0A004572726F723A20584770696FE4
:101640005F496E697469616C697A652025640D0A69
:1016500000000000537563636573733A2058477048
:10166000696F5F496E697469616C697A650D0A001A
:10167000585370692031200A0D0000004572726FC6
:10168000723A20585370695F5374617274202564F4
:101690000A0D0000585370695F53746F70205374C3
:1016A00061747573203D2025640A0D0058537069DC
:1016B0005F496E697469616C697A652053746174FD
:1016C0007573203D2025640A0D0000005853706991
:1016D0005F436667496E697469616C697A65202544
:1016E000640A0D004572726F723A20585370695F38
:1016F0005365744F7074696F6E732025640A0D0012
:101700004572726F723A20585370695F496E7472F5
:10171000476C6F62616C44697361626C652025641B
:101720000A0D0000537563636573733A2058537054
:10173000695F496E7472476C6F62616C4469736172
:10174000626C652025640A0D000000004572726F0E
:10175000723A20585370695F5472616E7366657295
:101760002025640A0D0000002532782000000000CA
:101770000A0D456E64206F66205350492041505039
:101780002020537461747573203D2025640A0D0078
:10179000585370692032200A0D00000058537069B8
:1017A0002033200A0D000000585370692034200AAD
:1017B0000D000000585370692035200A0D0000000C
:1017C00048656C6C6F2066726F6D20434D312D3112
:1017D0000D0A000000202020202020202020282882
:1017E00028282820202020202020202020202020E1
:1017F0002020202020881010101010101010101021
:101800001010101010040404040404040404041050
:1018100010101010101041414141414101010101DE
:1018200001010101010101010101010101010101A8
:1018300010101010101042424242424202020202B4
:101840000202020202020202020202020202020278
:101850001010101020000000000000000000000028
:101860000000000000000000000000000000000078
:101870000000000000000000000000000000000068
:101880000000000000000000000000000000000058
:101890000000000000000000000000000000000048
:1018A0000000000000000000000000000000000038
:1018B0000000000000000000000000000000000028
:1018C0000000000000000000000000000000000018
:0518D000000000000013
:1018D80001000000000000000000004000000000BF
:1018E80000000000000000000000004000000000B0
:0C18F800000000000000A04440787D01CA
:04000003000000C039
:00000001FF
