:1000000008050020C1000000F3000000F30000001C
:1000100000000000000000000000000000000000E0
:10002000000000000000000000000000F3000000DD
:100030000000000000000000F3000000F3000000DA
:10004000150100001F01000029010000330100001C
:1000500000000000000000000000000000000000A0
:100060000000000000000000000000000000000090
:100070000000000000000000000000000000000080
:100080000000000000000000000000000000000070
:100090000000000000000000000000000000000060
:1000A0000000000000000000000000000000000050
:1000B0000000000000000000000000000000000040
:1000C0000C480D490D4A03E003680B60043004310D
:1000D0009142F9DB0A490B4A0020914203D00860A3
:1000E00004319142FBD108488546084880470848BA
:1000F0000047FEE784010000000000200800002007
:100100000800002008000020080500205101000020
:100110003D01000080B500AFC046BD4680BD80B542
:1001200000AFC046BD4680BD80B500AFC046BD46ED
:1001300080BD80B500AFC046BD4680BD80B500AF74
:10014000024B180000F010F8FEE7C0467856341253
:1001500080B500AF024B034A1A60C046BD4680BD61
:100160008401000040787D0180B582B000AF7860E6
:10017000034B1B687A681A60C046BD4602B080BD5A
:0401800088010000F2
:0801840040787D0100000140FC
:04000003000000C039
:00000001FF
