:1000000008090020C1000000F3000000F300000018
:1000100000000000000000000000000000000000E0
:10002000000000000000000000000000F3000000DD
:100030000000000000000000F3000000F3000000DA
:10004000890E0000970E000001000000A10E0000C4
:1000500000000000000000000000000000000000A0
:100060000000000000000000000000000000000090
:100070000000000000000000000000000000000080
:100080000000000000000000000000000000000070
:100090000000000000000000000000000000000060
:1000A0000000000000000000000000000000000050
:1000B0000000000000000000000000000000000040
:1000C0000C480D490D4A03E003680B60043004310D
:1000D0009142F9DB0A490B4A0020914203D00860A3
:1000E00004319142FBD108488546084880470848BA
:1000F0000047FEE72012000000000020340000202E
:10010000340000203400002008090020C90E00003F
:10011000B10E000080B582B000AF78607B681B68CC
:100120001800BD4602B080BD80B584B000AF7860D5
:1001300039607B68FB60FB683A681A60C046BD4660
:1001400004B080BD80B582B000AF78600A00FB1CAF
:100150001A70C0467B6808331800FFF7DBFF030006
:1001600008221340082BF5D07B681A1DFB1C1B7856
:1001700019001000FFF7D8FFC046BD4602B080BD91
:1001800080B582B000AF0200FB1D1A70FB1D1B780A
:10019000044A19001000FFF7D5FFC046BD4602B063
:1001A00080BDC0460000604080B582B000AF78607E
:1001B00008E07B681B785BB21800FFF7E1FF7B6803
:1001C00001337B607B681B785BB2002BF1D1C046AA
:1001D000C046BD4602B080BD80B582B000AF02000F
:1001E000FB1D1A70FB1D1B781A001F2313400122F0
:1001F0009A40034B1A60C046BD4602B080BDC0465F
:1002000000E100E080B500AF0449C0235B0001229B
:100210005242CA50C046BD4680BDC04600E100E023
:1002200080B582B000AF7860C0467B685A1E7A60A5
:10023000002BFAD1034B180000F09CFDC046BD46D0
:1002400002B080BDE00E0000B0B58EB000AFFFF789
:10025000D9FF0320FFF7C0FF00F0D6FC00F048FDF7
:1002600000F022FA0021022000F05CFACD4B1800C9
:1002700000F080FD0121012000F054FACA4B180063
:1002800000F078FD00F01CFBC84B180000F072FD78
:10029000C74B1800FFF7C4FFFFF7B4FF0020FFF7BC
:1002A0009BFF012000F0EEF900F0E0F900F008FA01
:1002B00023257C1900F0A2FA030023707B191B7818
:1002C000032B18D07B191B78012B0FD1B94B1800C9
:1002D00000F050FD6420FFF7A3FF0021012000F093
:1002E00021FAB54B180000F045FD06E0B34B1800AD
:1002F00000F040FDDCE7C046DAE723257C1900F07A
:100300007DFA030023707B191B78032B1BD07B190C
:100310001B78022B12D1A94B180000F02BFD642092
:10032000FFF77EFF0121012000F0FCF9C04601210A
:10033000022000F0F7F900237B6313E0A04B1800C4
:1003400000F018FDD9E7C046D7E700F03DFB0300F9
:1003500019001C23FA187B6BD3180A1C1A707B6BCC
:1003600001337B637B6B052BEFD96420FFF758FFCC
:100370000021022000F0D6F9924B180000F0FAFCA0
:100380001C23FB180621180000F000FD00210120AD
:1003900000F0C8F98C4B180000F0ECFC6420FFF76B
:1003A0003FFF0121012000F0BDF9884B180000F04B
:1003B000E1FC6420FFF734FF0021012000F0B2F9D6
:1003C000834B180000F0D6FC6420FFF729FF0121C1
:1003D000012000F0A7F97F4B180000F0CBFC0121B1
:1003E000022000F09FF900233B630CE000F0ECFAE0
:1003F000030019001423FA183B6BD3180A1C1A7057
:100400003B6B01333B633B6B052BEFD9724B180001
:1004100000F0B0FC1423FB180621180000F0B6FC15
:100420000021022000F07EF96420FFF7F9FE002190
:10043000012000F077F9694B180000F09BFC0823BD
:10044000FB6217E0FA235B001800FFF7E9FE0120CA
:1004500000F04AF9031E0DD10121012000F062F9DC
:10046000C046012000F040F9031EFAD0002101200F
:1004700000F058F9FB6A5A1EFA62002BE2D1012102
:10048000012000F04FF9564B180000F073FC0221D8
:10049000022000F047F90C23FB18524A116819603A
:1004A00092889A800023BB620AE00C23FA18BB6A88
:1004B000D3181B78180000F0A7FABB6A0133BB629F
:1004C000BB6A052BF1D9484B180000F053FC002102
:1004D000022000F027F9FA239B001800FFF7A0FE86
:1004E0000021012000F01EF9404B180000F042FCF2
:1004F000C046012000F0F8F80300012BF9D03C4B76
:10050000180000F037FCC046012000F0EDF8031E93
:10051000FAD0384B180000F02DFC0121012000F02A
:1005200001F9354B180000F025FC0221022000F0F3
:10053000F9F83B1D314A1168196092889A800023AE
:100540007B6209E03A1D7B6AD3181B78180000F023
:100550005BFA7B6A01337B627B6A052BF2D9284BFD
:10056000180000F007FC0021022000F0DBF8FA235D
:100570009B001800FFF754FE0021012000F0D2F884
:10058000204B180000F0F6FBFA239B001800FFF741
:1005900047FE0121012000F0C5F81A4B180000F0B9
:1005A000E9FBFEE71C0F0000F00E00003C0F00000E
:1005B00010270000500F0000640F0000880F00009B
:1005C0009C0F0000B80F0000D80F0000E40F0000DF
:1005D000F00F0000FC0F00000810000024100000C5
:1005E00030100000BC1000003C1000005C10000047
:1005F000681000007810000088100000C41000008F
:1006000094100000B010000080B582B000AF02006E
:10061000FB1D1A70FB1D1B781A001F2313400122BB
:100620009A401300044A1900C0235B00D150C04611
:10063000BD4602B080BDC04600E100E080B582B09A
:1006400000AF7860034B1B687A681A60C046BD46ED
:1006500002B080BD2412000080B500AF024B1B68C1
:100660001B681800BD4680BD2412000080B500AF95
:10067000034B1B68802212061A60C046BD4680BD2F
:100680002812000080B582B000AF7860054B1B686F
:1006900019687A68034B1B680A431A60C046BD4656
:1006A00002B080BD2C12000080B500AF034B0122C8
:1006B0001A7000F005F8C046BD4680BD201200004B
:1006C00080B500AF054B00221A60054B00221A606E
:1006D000044B00221A60C046BD4680BD6800002061
:1006E0006C0000207000002080B584B000AF0200D4
:1006F000FB1D1A70FFF7B0FF0300FB60FB1D1B78AA
:10070000022B01D1FB6809E0FB1D1B78012B03D1F3
:10071000FB680122134001E001235B421800BD4643
:1007200004B080BD80B582B000AF02003960FB1D0F
:100730001A70FB1D1B78032B27D028DC012B02D05D
:10074000022B10D023E0174B1B7801229343DAB21F
:10075000144B1A703B68DAB2124B1B781343DAB2AF
:10076000104B1A7014E00F4B1B780C229343DAB233
:100770000C4B1A703B68DBB29B00DAB2094B1B785A
:100780001343DAB2074B1A7002E0C04600E0C046DD
:10079000044B1B781800FFF751FFC046BD4602B05E
:1007A00080BDC0462012000080B582B000AF0200BC
:1007B000FB1D1A700E4B1B68092B14D80D4B1B68C0
:1007C000591C0C4A11600C4AF91D0978D154094B87
:1007D0001B68092B02D9074B00221A60044B1B68C7
:1007E0005A1C034B1A60C046BD4602B080BDC046CD
:1007F00070000020680000205C00002080B582B0FE
:1008000000AF104B1B68002B17D00F4B1B68591CF7
:100810000D4A11600D4AD35CDBB27B600A4B1B684A
:100820000A2B02D1084B00221A60064B1B685A1E85
:10083000044B1A607B68DBB200E003231800BD465E
:1008400002B080BD700000206C0000205C00002021
:1008500080B582B000AFFFF7FFFE03007B607B68CE
:100860000122134003D00220FFF79EFF02E0012087
:10087000FFF79AFF054B1B6801221A600020FFF763
:10088000C3FEC046BD4602B080BDC0463012000067
:1008900080B582B000AF78607B681B681800BD46E9
:1008A00002B080BD80B584B000AF786039607B68ED
:1008B000FB60FB683A681A60C046BD4604B080BD64
:1008C00080B584B000AF0023BB6000237B60354B54
:1008D0001B6840330A211800FFF7E4FF324B180071
:1008E00000F048FA2F4B1B6860331800FFF7D0FF69
:1008F00003003B603B68182213433B60294B1B6895
:1009000060333A6811001800FFF7CCFF274B18003E
:1009100000F030FA0023FB6010E0FB68DBB210331C
:10092000D9B2234AFB68D3180A1C1A70214AFB6803
:10093000D31811221A70FB680133FB60FB68102B7F
:10094000EBD91D4B180000F015FA164B1B686033ED
:100950001800FFF79DFF03003B603B6862221343D2
:100960003B603B68154A13403B600E4B1B6860338D
:100970003A6811001800FFF795FF114B180000F0BE
:10098000F9F9084B1B681C3300211800FFF78AFF98
:100990000C4B180000F0EEF900231800BD4604B01F
:1009A00080BDC0463C120000EC110000F8110000B0
:1009B0003400002048000020FC110000FFFEFFFF73
:1009C000001200000412000080B582B000AFC046E3
:1009D0000C4B1B6864331800FFF75AFF0300012219
:1009E0001340012BF4D0074B1B686C331800FFF742
:1009F0004FFF0200FB1D1A70FB1D1B781800BD463F
:100A000002B080BD3C12000080B582B000AF020091
:100A1000FB1D1A70C0460C4B1B681B680822134054
:100A2000012BF8D0094B1B68FA1D12781A60C046DA
:100A3000054B1B681B6804221340F9D0C046C04612
:100A4000BD4602B080BDC04634120000381200001E
:100A500080B582B000AF0200FB1D1A70FB1D1B7831
:100A60001A001F23134001229A401300044A190060
:100A7000C0235B00D150C046BD4602B080BDC04619
:100A800000E100E080B582B000AF786039607B683B
:100A900001337B607A683B689A4201D1002300E011
:100AA0007B681800BD4602B080BD000080B584B0F0
:100AB00000AF78602D4B1B68002B01D1002350E064
:100AC0002B4B1B68DA002B4BD318FB60FB681A68B2
:100AD000FB685B68D2180B217B1812781A700A0029
:100AE000BB181B78002B0AD07B68BA1812781A70D2
:100AF000FB685B685A1CFB685A60012331E01C4BA1
:100B00001B6832211800FFF7BDFF0200184B1A6066
:100B1000164B1B68013B154A1360002B01D10023C3
:100B20001FE0134B1B68DA00124BD318FB60FB6805
:100B30001A68FB685B68D2180B217B1812781A7050
:100B40000A00BB181B78002B0AD07B68BA181278F1
:100B50001A70FB685B685A1CFB685A60012300E04E
:100B600000231800BD4604B080BDC0460C02002022
:100B7000080200207400002090B585B000AF7860B6
:100B80001C4B1B681A680F243B191A701A4B1B6800
:100B900000221A60194B1A68194BD2007968D1509B
:100BA000164B1B68164ADB00D318043300221A6068
:100BB000144B1B685A1C134B1A60104B1B683221D4
:100BC0001800FFF75FFF02000C4B1A603B193A193F
:100BD000127810210A401A70074B1B6810221A6005
:100BE000084B1B68012B01D100F042F8C046BD46FE
:100BF00005B090BD4412000048120000040200201D
:100C0000740000200C02002080B582B000AF134BAE
:100C10001B6803221A60124B00221A60114B00223B
:100C20001A60114B00221A6000237B600EE00F4B0C
:100C30007A68D2000021D1500C4A7B68DB00D318BF
:100C4000043300221A607B6801337B607B68312BA0
:100C5000EDD9C046C046BD4602B080BD4812000076
:100C600004020020080200200C0200207400002072
:100C700080B582B000AF184B1B681A68FB1D1A7054
:100C8000164B1B6800221A60BB1DFA1D12781A70E1
:100C900009E07B1D1A78124B1B681A600E4B1B680B
:100CA0001A68FB1D1A70FB1D1B780822134005D122
:100CB0007B1D1800FFF7FAFE031EEAD1BB1DBA1D0B
:100CC000127810210A401A70044B1B6810221A6017
:100CD000C046BD4602B080BD44120000481200006C
:100CE0004012000080B500AFC046BD4680BD000088
:100CF00080B500AF034B1B6810221A60C046BD468A
:100D000080BDC0464812000080B582B000AF174BCE
:100D10001B681A68FB1D1A70154B1B685A1CFF32A2
:100D2000134B1A60FB1D1B780322134008D0FFF7FA
:100D3000D9FF0F4B1B68802252029A180C4B1A6085
:100D4000FB1D1B780422134008D0FFF791FF084BCE
:100D50001B68802252049A18054B1A600320FFF783
:100D600077FEC046BD4602B080BDC04644120000BA
:100D70001002002080B582B000AF78607B68180058
:100D8000FFF7FAFEC046BD4602B080BD80B588B010
:100D900000AF786039603A4B1A683A4BD31A1A00A0
:100DA000FA235B009B1ABB61BA693B689A4202DA7C
:100DB000334B344A1A60324B1B687B6100233B6122
:100DC0000023FB6148E07B685A1C7A600F203A18C8
:100DD0001B7813700E217B183A18127812091A70BA
:100DE0007B181B78092B04D87B181B783033D9B2B9
:100DF00004E00E23FB181B785733D9B2204B1B6835
:100E0000581C1F4A10600A1C1A700E203B180F2233
:100E1000BA1812780F210A401A703B181B78092B58
:100E200004D83B181B783033D9B204E00E23FB18EA
:100E30001B785733D9B2124B1B68581C104A1060EC
:100E40000A1C1A700E4B1B68591C0D4A1160202297
:100E50001A70FB690133FB61FA693B689A42B2DBA5
:100E6000074B1B68591C064A116000221A707B69E7
:100E70001800FFF781FEC046BD4608B080BDC046E1
:100E80004C1200001402002080B500AFFFF7E0FC18
:100E9000C046BD4680BD80B500AFC046BD4680BDE2
:100EA00080B500AFFFF730FFC046BD4680BD0000F3
:100EB00080B500AF034B1800FFF776F9FFF7C4F9D0
:100EC000FEE7C0460812000080B500AF024B034A9F
:100ED0001A60C046BD4680BD5012000040787D01BA
:100EE0000A0D61667465722064656C6179000000AA
:100EF0000A0D4D43553A20736574204853492068C4
:100F000069676820000000000D0A4D435520736595
:100F10007420485349206C6F770000000A0D4D4340
:100F2000553A2073657420636F6D6D20737461741E
:100F30006520746F204750494F2000000A0D4D4333
:100F4000553A2073706920696E69742000000000B2
:100F50000D0A4D43553A206765742048534F206C65
:100F60006F7700000D0A4D43552073657420485378
:100F700049206C6F77203B20776169742048534F7C
:100F800020686967680000000D0A4D43553A2067E4
:100F900065742048534F2068696768000D0A4D4307
:100FA000553A204572726F72203A67657420485333
:100FB0004F206C6F770000000A0D53504920726576
:100FC000636569766520534520636D6420686561BB
:100FD000646572203A0000000A0D524459206C6F7B
:100FE000772000000A0D5244592068696768200084
:100FF0000A0D41434B206C6F772000000A0D4143DE
:101000004B206869676820000A0D535049207265BB
:10101000636569766520534520636D64206461745F
:1010200061203A000A0D485349206C6F7720000078
:101030000A0D485349206869676820000A0D526507
:1010400073706F6E73652068656164657220736587
:101050006E7420746F205345200000000A0D485321
:1010600049206C6F770000000A0D206765742041ED
:10107000434B206C6F7700000A0D20676574204198
:10108000434B2068696768000A0D48534920686926
:10109000676800000D0A20526573706F6E736520DB
:1010A000646174612073656E7420746F2053450011
:1010B0000A0D524459206C6F7700000006AA559023
:1010C000AA5500001122334455AA000058537069F4
:1010D0002031200A0D0000004572726F723A2058CC
:1010E0005370695F53746172742025640A0D0000A7
:1010F000585370695F53746F7020537461747573C3
:10110000203D2025640A0D00585370695F496E69BF
:101110007469616C697A6520537461747573203DDC
:101120002025640A0D000000585370695F4366670C
:10113000496E697469616C697A652025640A0D00DD
:101140004572726F723A20585370695F5365744FDD
:101150007074696F6E732025640A0D004572726F9A
:10116000723A20585370695F496E7472476C6F62AF
:10117000616C44697361626C652025640A0D00002E
:10118000537563636573733A20585370695F496E92
:101190007472476C6F62616C44697361626C652044
:1011A00025640A0D000000004572726F723A2058E3
:1011B0005370695F5472616E736665722025640AAC
:1011C0000D00000025327820000000000A0D456E59
:1011D00064206F66205350492041505020205374A2
:1011E00061747573203D2025640A0D000A0D585363
:1011F0007069203100000000203200002033000020
:1012000020340000203500000A0D48656C6C6F200A
:0D12100066726F6D20434D312D310D0A00C7
:1012200001000000000000401C01004028010040B7
:10123000200100406400A0446800A0440000A044D5
:1012400004006040080060400C0060401402002070
:0412500040787D0164
:04000003000000C039
:00000001FF
