:1000000030050020C1000000F3000000F5000000F2
:1000100000000000000000000000000000000000E0
:10002000000000000000000000000000F7000000D9
:100030000000000000000000F9000000FB000000CC
:10004000FD000000FF0000000101000003010000AE
:100050000501000000000000070100000901000088
:100060000B01000000000000000000000000000084
:1000700000000000000000000D0100000F01000062
:10008000000000001101000000000000000000005E
:100090000000000000000000000000000000000060
:1000A0000000000000000000000000000000000050
:1000B0000000000000000000000000000000000040
:1000C00014481549154A03E003680B6004300431F5
:1000D0009142F9DB1249134A0020914203D0086093
:1000E00004319142FBD110488546104880471048A2
:1000F0000047FEE7FEE7FEE7FEE7FEE7FEE7FEE776
:10010000FEE7FEE7FEE7FEE7FEE7FEE7FEE7FEE7C7
:10011000FEE7C0464C100000000000202800002030
:10012000280000202800002030050020510C00008D
:100130000D0B0000002243088B4274D303098B424D
:100140005FD3030A8B4244D3030B8B4228D3030CA7
:100150008B420DD3FF22090212BA030C8B4202D349
:100160001212090265D0030B8B4219D300E0090A71
:10017000C30B8B4201D3CB03C01A5241830B8B427A
:1001800001D38B03C01A5241430B8B4201D34B0363
:10019000C01A5241030B8B4201D30B03C01A5241C8
:1001A000C30A8B4201D3CB02C01A5241830A8B424D
:1001B00001D38B02C01A5241430A8B4201D34B0236
:1001C000C01A5241030A8B4201D30B02C01A52419A
:1001D000CDD2C3098B4201D3CB01C01A524183094E
:1001E0008B4201D38B01C01A524143098B4201D388
:1001F0004B01C01A524103098B4201D30B01C01AB3
:100200005241C3088B4201D3CB00C01A524183082C
:100210008B4201D38B00C01A524143088B4201D359
:100220004B00C01A5241411A00D2014652411046B9
:100230007047FFE701B5002000F006F802BDC04698
:100240000029F7D076E770477047C04680B582B086
:1002500000AF78607B681B681800BD4602B080BDA7
:1002600080B584B000AF786039607B68FB60FB6864
:100270003A681A60C046BD4604B080BD80B582B001
:1002800000AF78600A00FB1C1A70C0467B68083318
:100290001800FFF7DBFF030008221340082BF5D0FE
:1002A0007B681A1DFB1C1B7819001000FFF7D8FF94
:1002B000C046BD4602B080BD80B582B000AF02002E
:1002C000FB1D1A70FB1D1B78044A19001000FFF774
:1002D000D5FFC046BD4602B080BDC04600006040AC
:1002E00080B582B000AF786008E07B681B785BB2B5
:1002F0001800FFF7E1FF7B6801337B607B681B78A8
:100300005BB2002BF1D1C046C046BD4602B080BDF5
:1003100080B582B000AF786039600A4B1B68002B53
:1003200005D0084B1B6839687A6810009847C046AA
:10033000054B1B68002BFBD1C046C046BD4602B032
:1003400080BDC0462C0000204C10000080B584B059
:1003500000AF786039603B681B69002B1AD07B685E
:10036000002B17D03B681A683B685B689A4211DA29
:100370003B681B68FB6008E03B681B7B5BB21800B6
:10038000FFF79AFFFB680133FB603B685B68FA6824
:100390009A42F1DBC046BD4604B080BD80B584B052
:1003A00000AF786039607B68FB60FB68002B07D08A
:1003B000FB68180000F058FC03001A003B681A6044
:1003C0003B685B695A425341DBB21A003B68190033
:1003D0001000FFF7BBFF0DE03B689B685A1E3B68AF
:1003E0009A60FB681B785BB21800FFF765FFFB683B
:1003F0000133FB60FB681B785BB2002B03D03B68CA
:100400009B68002BE8D13B685B693A6811001800D3
:10041000FFF79CFFC046BD4604B080BD90B595B0C7
:1004200000AFF860B9607A601023FB18454A13CA20
:1004300013C31168196012791A710023BB6408E0B4
:100440002423FA18BB6CD31830221A70BB6C01330A
:10045000BB64BB6C1F2BF3DD7B689B69002B0BD14E
:10046000BB680A2B08D1FB68002B05DA0123FB646B
:10047000FB685B427B6403E0FB687B640023FB64F6
:100480000023BB64BA687B6C11001800FFF7D8FE2C
:100490000B001A001023FB18995624243A19BB6C40
:1004A000D3180A1C1A70BB6C0133BB64BB681900FB
:1004B000786CFFF73FFE03007B647B6C002BE1D17F
:1004C000FB6C002B07D03A19BB6CD3182D221A7085
:1004D000BB6C0133BB6424217A18BB6CD318002297
:1004E0001A70BB6C013BBB647B18180000F0BCFBAE
:1004F00003001A007B681A607B685B695A425341AB
:10050000DBB21A007B6819001000FFF71FFF0BE039
:100510002423FA18BB6CD3181B785BB21800FFF7C2
:10052000CBFEBB6C013BBB64BB6C002BF0DA7B6881
:100530005B697A6811001800FFF708FFC046BD46E6
:1005400015B090BDC40C000080B586B000AF7860D7
:1005500000233B6100237B617B681B68FB60FB68B9
:10056000002B3CD0FB681B785BB25A1C214BD31884
:100570001B785BB2DBB21A00042313403B612EE010
:10058000FB68002B1ED07A6913009B009B185B0050
:100590001A00FB681B785BB2303BD3187B61FB68A9
:1005A0000133FB60FB68002B0CD0FB681B785BB24F
:1005B0005A1C104BD3181B785BB2DBB21A00042311
:1005C00013403B61FB681B785BB25A1C094BD31884
:1005D0001B785BB2DBB21A00042313403B613B691A
:1005E000002BCDD17B68FA681A607B691800BD4684
:1005F00006B080BD480F00000FB480B58EB000AFCC
:100600003B6C7B604423FB18BB601BE17B681B7861
:100610005BB2252B09D07B681B785BB21800FFF713
:100620004BFE7B6801337B600CE100233B630C21B4
:100630007B1800229A617B1800225A617B180022E5
:100640001A617B1820221A737B18864A9A607B18DD
:1006500000225A607B1800221A607B68002B02D0AF
:100660007B6801337B607B68002B05D07A682F2381
:10067000FB1812781A7004E07A682F23FB1812789E
:100680001A702F23FB181B785BB25A1C764BD318B9
:100690001B785BB2DBB21A00042313402BD03B6BF8
:1006A000002B08D03B1D1800FFF74EFF02000C2363
:1006B000FB189A6018E02F23FB181B785BB2302BD5
:1006C00003D10C23FB1830221A737B68002B07D050
:1006D0003B1D1800FFF738FF02000C23FB185A607F
:1006E0000C23FB1801221A617B68002BB5D07B68B4
:1006F000013B7B60B1E72F23FB181B785BB2BB6229
:10070000BB6A5A1C584BD3181B785BB2DBB21A0079
:1007100003231340012B02D1BB6A203300E0BB6AE4
:10072000253B532B00D980E09A00504BD3181B680F
:100730009F462520FFF7C0FD01237B6378E00C2353
:10074000FB1801225A6100237B6371E001233B63A4
:1007500000237B636CE000237B6369E00C23FB18C0
:1007600001229A61BB681A1DBA601B680C22BA1874
:100770000A211800FFF752FE01237B6358E00C2189
:100780007B1801229A61BB681A1DBA601B687A182F
:1007900010211800FFF742FE01237B6348E0BB688D
:1007A0001A1DBA601B680C22BA1811001800FFF756
:1007B000F5FD01237B633BE0BB681A1DBA601B6833
:1007C0005BB21800FFF778FD01237B6330E07B68A4
:1007D0001B785BB2722B10D01ADC6E2B11D017DC99
:1007E000612B02D0682B04D012E00720FFF764FDD4
:1007F00015E00820FFF760FD11E00D20FFF75CFD1C
:100800000DE00D20FFF758FD0A20FFF755FD06E02B
:100810007B681B785BB21800FFF74EFDC0467B6813
:1008200001337B6000237B6302E001237B63C046CE
:100830007B6B012B00D010E77B68002B02D07B681C
:1008400001337B607B68002B05D07B681B785BB233
:10085000002B00D0DAE6C046BD460EB080BC08BC16
:1008600004B01847FF7F0000480F0000D80C0000BC
:1008700080B582B000AF78607B681B681800BD4609
:1008800002B080BD80B584B000AF786039607B680D
:10089000FB60FB683A681A60C046BD4604B080BD84
:1008A00080B584B000AFF860B9607A60FB68002B57
:1008B00012D0104B00221A60FB687A681A60BB687D
:1008C0009A68FB689A60BB68DA68FB68DA60FB6864
:1008D000094A5A60002308E0084B79211800FFF705
:1008E00017FD044B01221A6000231800BD4604B016
:1008F00080BDC0462800002011111111280E0000F3
:1009000080B582B000AF786039607B68002B08D07A
:10091000224B00221A607B685B68214A934211D106
:1009200009E0204BD6211800FFF7F2FC1B4B0122F7
:100930001A6000232EE0194B00221A603B68012B3D
:1009400011D009E0174BD7211800FFF7E1FC134B3A
:1009500001221A6000231DE03B68022B11D17B6845
:10096000DB68012B0DD10D4B00221A607B681A68E1
:100970003B68013BDB00D3181800FFF779FF030049
:1009800008E0084BD8211800FFF7C2FC034B0122F6
:100990001A6000231800BD4602B080BD2800002068
:1009A00011111111280E000080B584B000AFF8605D
:1009B000B9607A60FB68002B08D0224B00221A60D5
:1009C000FB685B68204A934210D108E01F4BF2217C
:1009D0001800FFF79DFC1B4B01221A602EE0194BFB
:1009E00000221A60BB68012B10D008E0174BF321DE
:1009F0001800FFF78DFC134B01221A601EE0BB6844
:100A0000022B12D1FB68DB68012B0ED10D4B0022AB
:100A10001A60FB681A68BB68013BDB00D3187A6870
:100A200011001800FFF72EFF08E0084BF421180012
:100A3000FFF76EFC034B01221A60C046BD4604B0AE
:100A400080BDC0462800002011111111280E0000A1
:100A500080B584B000AF0200BB1D1A800023FB608C
:100A60000023BB6010E00C4BBA681201D35ABA1DC8
:100A700012889A4205D1BB681A01074BD318FB6054
:100A800005E0BB680133BB60BB68012BEBDDFB6895
:100A90001800BD4604B080BD5010000080B584B081
:100AA00000AF78600A00BB1C1A807B68002B0DD059
:100AB000144B00221A60BB1C1B881800FFF7C8FFEC
:100AC0000300FB60FB68002B0FD109E00E4B8B216C
:100AD0001800FFF71DFC0B4B01221A6000230CE0ED
:100AE0007B6800225A60022307E0FB685A68F968B5
:100AF0007B681800FFF7D4FE03001800BD4604B061
:100B000080BDC04628000020480E0000B0B594B05B
:100B100000AF14243B1900221A803B198022D20511
:100B20005A603B1900229A603B190022DA603B1D93
:100B30003D4A23CA23C312681A603C4B1800FFF7D2
:100B4000CFFB3B195A68391934243B191800FFF7B9
:100B5000A7FE3B1D5A68391D2423FB181800FFF718
:100B60009FFE3B1900211800FFF798FF0300FB646C
:100B7000FB6C002B05D02E4B1800FFF73DFD012329
:100B80004EE02C4B1800FFF737FD2423FB18012102
:100B90001800FFF783FF0300FB64FB6C002B05D0FC
:100BA000254B1800FFF728FD012339E0234B1800DF
:100BB000FFF722FD0023BB643423FB18012118003A
:100BC000FFF79EFE0300BB64BA6C1D4B11001800BA
:100BD000FFF712FD00237B6402E07B6C01337B6432
:100BE0007B6C184A9342F8D9174B1800FFF704FDA5
:100BF000BB6C0F221A402423FB1801211800FFF7B9
:100C0000D3FE00237B6402E07B6C01337B647B6C4E
:100C10000C4A9342F8D90D4B1800FFF7EDFCC9E7D9
:100C20001800BD4614B0B0BD380F00006C0E0000B7
:100C3000800E0000A00E0000C00E0000E00E0000BC
:100C4000000F00003F420F00100F0000240F0000B3
:100C500080B500AF024B034A1A60C046BD4680BD56
:100C60007010000040787D0110B583070AD00300A2
:100C7000032102E001330B4205D01A78002AF9D192
:100C8000181A10BD030019680C4A0D4C8A188A43C3
:100C900022420FD15968094A04338A188A432242F2
:100CA00008D15968054A04338A188A432242F1D090
:100CB00000E001331A78002AFBD1E1E7FFFEFEFED7
:100CC0008080808030313233343536373839414294
:100CD0004344454600000000320700002A08000097
:100CE0002A0800002A0800002A0800002A0800003C
:100CF0002A0800002A0800003E0700004C070000F8
:100D00002A0800002A0800002A0800002A0800001B
:100D10002A0800002A0800002A0800002A0800000B
:100D20002A0800002A0800002A0800002A080000FB
:100D30002A0800002A0800002A0800002A080000EB
:100D40002A0800002A0800002A0800002A080000DB
:100D50002A0800002A0800002A0800002A080000CB
:100D60002A0800002A0800002A0800002A080000BB
:100D70002A0800002A0800002A0800002A080000AB
:100D80002A0800002A0800002A0800002A0800009B
:100D90002A0800002A0800002A0800002A0800008B
:100DA0002A0800007E0700002A0800002A08000028
:100DB0002A080000CE0700002A0800002A080000C8
:100DC0002A0800002A0800002A0800002A0800005B
:100DD000B8070000640700002A0800002A08000085
:100DE0002A0800002A080000640700002A08000002
:100DF0002A080000560700002A0800002A08000000
:100E00002A0800007E0700002A0800002A080000C7
:100E10009E0700002A0800005C0700002A08000066
:100E20002A0800007E0700002E2E2F7372632F67A2
:100E300070696F5F76345F342F7372632F786770D9
:100E4000696F2E63000000002E2E2F7372632F67D0
:100E500070696F5F76345F342F7372632F786770B9
:100E6000696F5F73696E69742E63000048656C6C0E
:100E70006F2066726F6D20434D312D310D0A0000D9
:100E80004770696F3020496E697469616C6973617C
:100E900074696F6E204661696C65640D0A0000001C
:100EA0004770696F3020496E697469616C6973615C
:100EB00074696F6E20537563636573730D0A000068
:100EC0004770696F3120496E697469616C6973613B
:100ED00074696F6E204661696C65640D0A000000DC
:100EE0004770696F3120496E697469616C6973611B
:100EF00074696F6E20537563636573730D0A000028
:100F0000535720696E203D202578200D0A000000EF
:100F10006166746572203173742064656C61790D4B
:100F20000A000000616674657220326E6420646598
:100F30006C61790D0A000000010000000000014012
:100F400000000000000000000020202020202020C1
:100F50002020282828282820202020202020202069
:100F60002020202020202020208810101010101079
:100F700010101010101010101004040404040404C5
:100F8000040404101010101010104141414141415F
:100F90000101010101010101010101010101010141
:100FA0000101010110101010101042424242424251
:100FB0000202020202020202020202020202020211
:100FC00002020202101010102000000000000000B9
:100FD0000000000000000000000000000000000011
:100FE0000000000000000000000000000000000001
:100FF00000000000000000000000000000000000F1
:1010000000000000000000000000000000000000E0
:1010100000000000000000000000000000000000D0
:1010200000000000000000000000000000000000C0
:1010300000000000000000000000000000000000B0
:09104000000000000000000000A7
:10104C000100000000000000000000400000000053
:10105C000000000001000000000001400000000042
:08106C000000000040787D0146
:04000003000000C039
:00000001FF
