:1000000060050020C1000000F3000000F3000000C4
:1000100000000000000000000000000000000000E0
:10002000000000000000000000000000F3000000DD
:100030000000000000000000F3000000F3000000DA
:100040001501000017010000190100001B0100004C
:1000500000000000000000000000000000000000A0
:100060000000000000000000000000000000000090
:100070000000000000000000000000000000000080
:100080000000000000000000000000000000000070
:100090000000000000000000000000000000000060
:1000A0000000000000000000000000000000000050
:1000B0000000000000000000000000000000000040
:1000C0000C480D490D4A03E003680B60043004310D
:1000D0009142F9DB0A490B4A0020914203D00860A3
:1000E00004319142FBD108488546084880470848BA
:1000F0000047FEE72402000000000020400000202E
:10010000400000204000002060050020C1010000E8
:100110001D010000704770477047704710B52148B7
:1001200000F056F8204800F053F8204800F050F84E
:100130001F4800F04DF8002000F054F804001D485E
:1001400000F046F8002C28D0206800F041F8762115
:10015000200000F051F87721200000F04DF87921BF
:10016000200000F049F87A21200000F045F86120D5
:1001700000F04CF8622000F049F8632000F046F8E7
:10018000642000F043F8094C200000F027F80A4BE7
:10019000013C013B002BFCD1F6E7084800F018F8C1
:1001A000E5E7C046684523010000604011110000EA
:1001B0001111010011111100102700000000111190
:1001C000014B024A1A6070472402000040787D010A
:1001D000014B1B6818607047280200008023DB0574
:1001E0001860704703000020012B02D8014A9B00D1
:1001F000985870472C020000082310B584682268C4
:100200001A42FCD14368196010BD0000082303495D
:100210000A681A42FCD1024B18607047080060401F
:040220000400604036
:1002240040787D0100000040340200004C020000D0
:100234000000604004006040080060400C00604022
:100244005000002040000020000060400400604096
:10025400080060400C006040580000204800002066
:04000003000000C039
:00000001FF
