:1000000070050020C1000000F3000000F5000000B2
:1000100000000000000000000000000000000000E0
:10002000000000000000000000000000F7000000D9
:100030000000000000000000F9000000FB000000CC
:10004000FD000000FF0000000101000003010000AE
:100050000501000000000000070100000901000088
:100060000B01000000000000000000000000000084
:1000700000000000000000000D0100000F01000062
:10008000000000001101000000000000000000005E
:100090000000000000000000000000000000000060
:1000A0000000000000000000000000000000000050
:1000B0000000000000000000000000000000000040
:1000C00014481549154A03E003680B6004300431F5
:1000D0009142F9DB1249134A0020914203D0086093
:1000E00004319142FBD110488546104880471048A2
:1000F0000047FEE7FEE7FEE7FEE7FEE7FEE7FEE776
:10010000FEE7FEE7FEE7FEE7FEE7FEE7FEE7FEE7C7
:10011000FEE7C046D4190000000000202C0000209B
:100120002C0000202C00002070050020F11200009F
:10013000D9120000002243088B4274D303098B427A
:100140005FD3030A8B4244D3030B8B4228D3030CA7
:100150008B420DD3FF22090212BA030C8B4202D349
:100160001212090265D0030B8B4219D300E0090A71
:10017000C30B8B4201D3CB03C01A5241830B8B427A
:1001800001D38B03C01A5241430B8B4201D34B0363
:10019000C01A5241030B8B4201D30B03C01A5241C8
:1001A000C30A8B4201D3CB02C01A5241830A8B424D
:1001B00001D38B02C01A5241430A8B4201D34B0236
:1001C000C01A5241030A8B4201D30B02C01A52419A
:1001D000CDD2C3098B4201D3CB01C01A524183094E
:1001E0008B4201D38B01C01A524143098B4201D388
:1001F0004B01C01A524103098B4201D30B01C01AB3
:100200005241C3088B4201D3CB00C01A524183082C
:100210008B4201D38B00C01A524143088B4201D359
:100220004B00C01A5241411A00D2014652411046B9
:100230007047FFE701B5002000F006F802BDC04698
:100240000029F7D076E770477047C04680B582B086
:1002500000AF78607B681B681800BD4602B080BDA7
:1002600080B584B000AF786039607B68FB60FB6864
:100270003A681A60C046BD4604B080BD80B582B001
:1002800000AF78600A00FB1C1A70C0467B68083318
:100290001800FFF7DBFF030008221340082BF5D0FE
:1002A0007B681A1DFB1C1B7819001000FFF7D8FF94
:1002B000C046BD4602B080BD80B582B000AF02002E
:1002C000FB1D1A70FB1D1B78044A19001000FFF774
:1002D000D5FFC046BD4602B080BDC04600006040AC
:1002E00080B582B000AF786008E07B681B785BB2B5
:1002F0001800FFF7E1FF7B6801337B607B681B78A8
:100300005BB2002BF1D1C046C046BD4602B080BDF5
:1003100080B582B000AF786039600A4B1B68002B53
:1003200005D0084B1B6839687A6810009847C046AA
:10033000054B1B68002BFBD1C046C046BD4602B032
:1003400080BDC04658000020D419000080B584B09C
:1003500000AF786039603B681B69002B1AD07B685E
:10036000002B17D03B681A683B685B689A4211DA29
:100370003B681B68FB6008E03B681B7B5BB21800B6
:10038000FFF79AFFFB680133FB603B685B68FA6824
:100390009A42F1DBC046BD4604B080BD80B584B052
:1003A00000AF786039607B68FB60FB68002B07D08A
:1003B000FB68180000F0A8FF03001A003B681A60F1
:1003C0003B685B695A425341DBB21A003B68190033
:1003D0001000FFF7BBFF0DE03B689B685A1E3B68AF
:1003E0009A60FB681B785BB21800FFF765FFFB683B
:1003F0000133FB60FB681B785BB2002B03D03B68CA
:100400009B68002BE8D13B685B693A6811001800D3
:10041000FFF79CFFC046BD4604B080BD90B595B0C7
:1004200000AFF860B9607A601023FB18454A13CA20
:1004300013C31168196012791A710023BB6408E0B4
:100440002423FA18BB6CD31830221A70BB6C01330A
:10045000BB64BB6C1F2BF3DD7B689B69002B0BD14E
:10046000BB680A2B08D1FB68002B05DA0123FB646B
:10047000FB685B427B6403E0FB687B640023FB64F6
:100480000023BB64BA687B6C11001800FFF7D8FE2C
:100490000B001A001023FB18995624243A19BB6C40
:1004A000D3180A1C1A70BB6C0133BB64BB681900FB
:1004B000786CFFF73FFE03007B647B6C002BE1D17F
:1004C000FB6C002B07D03A19BB6CD3182D221A7085
:1004D000BB6C0133BB6424217A18BB6CD318002297
:1004E0001A70BB6C013BBB647B18180000F00CFF5A
:1004F00003001A007B681A607B685B695A425341AB
:10050000DBB21A007B6819001000FFF71FFF0BE039
:100510002423FA18BB6CD3181B785BB21800FFF7C2
:10052000CBFEBB6C013BBB64BB6C002BF0DA7B6881
:100530005B697A6811001800FFF708FFC046BD46E6
:1005400015B090BD6413000080B586B000AF786030
:1005500000233B6100237B617B681B68FB60FB68B9
:10056000002B3CD0FB681B785BB25A1C214BD31884
:100570001B785BB2DBB21A00042313403B612EE010
:10058000FB68002B1ED07A6913009B009B185B0050
:100590001A00FB681B785BB2303BD3187B61FB68A9
:1005A0000133FB60FB68002B0CD0FB681B785BB24F
:1005B0005A1C104BD3181B785BB2DBB21A00042311
:1005C00013403B61FB681B785BB25A1C094BD31884
:1005D0001B785BB2DBB21A00042313403B613B691A
:1005E000002BCDD17B68FA681A607B691800BD4684
:1005F00006B080BDD01800000FB480B58EB000AF3B
:100600003B6C7B604423FB18BB601BE17B681B7861
:100610005BB2252B09D07B681B785BB21800FFF713
:100620004BFE7B6801337B600CE100233B630C21B4
:100630007B1800229A617B1800225A617B180022E5
:100640001A617B1820221A737B18864A9A607B18DD
:1006500000225A607B1800221A607B68002B02D0AF
:100660007B6801337B607B68002B05D07A682F2381
:10067000FB1812781A7004E07A682F23FB1812789E
:100680001A702F23FB181B785BB25A1C764BD318B9
:100690001B785BB2DBB21A00042313402BD03B6BF8
:1006A000002B08D03B1D1800FFF74EFF02000C2363
:1006B000FB189A6018E02F23FB181B785BB2302BD5
:1006C00003D10C23FB1830221A737B68002B07D050
:1006D0003B1D1800FFF738FF02000C23FB185A607F
:1006E0000C23FB1801221A617B68002BB5D07B68B4
:1006F000013B7B60B1E72F23FB181B785BB2BB6229
:10070000BB6A5A1C584BD3181B785BB2DBB21A0079
:1007100003231340012B02D1BB6A203300E0BB6AE4
:10072000253B532B00D980E09A00504BD3181B680F
:100730009F462520FFF7C0FD01237B6378E00C2353
:10074000FB1801225A6100237B6371E001233B63A4
:1007500000237B636CE000237B6369E00C23FB18C0
:1007600001229A61BB681A1DBA601B680C22BA1874
:100770000A211800FFF752FE01237B6358E00C2189
:100780007B1801229A61BB681A1DBA601B687A182F
:1007900010211800FFF742FE01237B6348E0BB688D
:1007A0001A1DBA601B680C22BA1811001800FFF756
:1007B000F5FD01237B633BE0BB681A1DBA601B6833
:1007C0005BB21800FFF778FD01237B6330E07B68A4
:1007D0001B785BB2722B10D01ADC6E2B11D017DC99
:1007E000612B02D0682B04D012E00720FFF764FDD4
:1007F00015E00820FFF760FD11E00D20FFF75CFD1C
:100800000DE00D20FFF758FD0A20FFF755FD06E02B
:100810007B681B785BB21800FFF74EFDC0467B6813
:1008200001337B6000237B6302E001237B63C046CE
:100830007B6B012B00D010E77B68002B02D07B681C
:1008400001337B607B68002B05D07B681B785BB233
:10085000002B00D0DAE6C046BD460EB080BC08BC16
:1008600004B01847FF7F0000D01800007813000084
:1008700080B582B000AF78607B681B681800BD4609
:1008800002B080BD80B584B000AF786039607B680D
:10089000FB60FB683A681A60C046BD4604B080BD84
:1008A00080B584B000AFF860B9607A60FB68002B57
:1008B00012D0104B00221A60FB687A681A60BB687D
:1008C0009A68FB689A60BB68DA68FB68DA60FB6864
:1008D000094A5A60002308E0084B79211800FFF705
:1008E00017FD044B01221A6000231800BD4604B016
:1008F00080BDC0462C00002011111111C814000049
:1009000080B584B000AFF860B9607A60FB68002BF6
:1009100008D0224B00221A60FB685B68204A934291
:1009200010D108E01F4B9E211800FFF7F1FC1B4B74
:1009300001221A602FE0194B00221A60BB68012BBC
:1009400010D008E0174B9F211800FFF7E1FC134B74
:1009500001221A601FE0BB68022B13D1FB68DB6821
:10096000012B0FD10D4B00221A60FB681A68BB687F
:10097000013BDB00D31804337A6811001800FFF73D
:1009800081FF08E0074BA0211800FFF7C1FC034BD3
:1009900001221A60C046BD4604B080BD2C00002074
:1009A00011111111C814000080B582B000AF786039
:1009B00039607B68002B08D0224B00221A607B68CC
:1009C0005B68214A934211D109E0204BD6211800DF
:1009D000FFF79EFC1B4B01221A6000232EE0194BEF
:1009E00000221A603B68012B11D009E0174BD72178
:1009F0001800FFF78DFC134B01221A6000231DE045
:100A00003B68022B11D17B68DB68012B0DD10D4BAC
:100A100000221A607B681A683B68013BDB00D31830
:100A20001800FFF725FF030008E0084BD821180045
:100A3000FFF76EFC034B01221A6000231800BD462D
:100A400002B080BD2C00002011111111C81400004B
:100A500080B584B000AFF860B9607A60FB68002BA5
:100A600008D0224B00221A60FB685B68204A934240
:100A700010D108E01F4BF2211800FFF749FC1B4B77
:100A800001221A602EE0194B00221A60BB68012B6C
:100A900010D008E0174BF3211800FFF739FC134B77
:100AA00001221A601EE0BB68022B12D1FB68DB68D2
:100AB000012B0ED10D4B00221A60FB681A68BB682F
:100AC000013BDB00D3187A6811001800FFF7DAFE4B
:100AD00008E0084BF4211800FFF71AFC034B012231
:100AE0001A60C046BD4604B080BDC0462C00002040
:100AF00011111111C814000080B584B000AF0200BC
:100B0000BB1D1A800023FB600023BB6010E00C4B70
:100B1000BA681201D35ABA1D12889A4205D1BB682D
:100B20001A01074BD318FB6005E0BB680133BB60BB
:100B3000BB68002BEBDDFB681800BD4604B080BD30
:100B4000D819000080B584B000AF78600A00BB1CE3
:100B50001A807B68002B0DD0144B00221A60BB1C3E
:100B60001B881800FFF7C8FF0300FB60FB68002B21
:100B70000FD109E00E4B8B211800FFF7C9FB0B4B7F
:100B800001221A6000230CE07B6800225A600223D5
:100B900007E0FB685A68F9687B681800FFF780FE79
:100BA00003001800BD4604B080BDC0462C000020E4
:100BB000E814000080B582B000AF7860C0467B6862
:100BC0005A1E7A60002BFAD1034B1800FFF714FD70
:100BD000C046BD4602B080BD0C15000080B58EB089
:100BE00000AF00F095F9B64B1800FFF705FD0021A6
:100BF000022000F0F5F9B34B1800FFF7FDFC0121CE
:100C0000012000F0EDF9B04B1800FFF7F5FC00F003
:100C100047FAAE4B1800FFF7EFFCAD4B1800FFF79B
:100C2000C9FF0021012000F0DBF9AA4B1800FFF7F3
:100C3000E3FC0AE0022000F0AFF903003B623A6AED
:100C4000A54B11001800FFF7D7FC012000F0A4F914
:100C50000300012BEED0A14B1800FFF7CDFCA04BF9
:100C60001800FFF7A7FF0121012000F0B9F99D4B03
:100C70001800FFF7C1FC0AE0022000F08DF9030024
:100C80007B627A6A944B11001800FFF7B5FC0120D3
:100C900000F082F9031EEFD0934B1800FFF7ACFC75
:100CA0008F4B1800FFF786FF0121022000F098F912
:100CB0001823FB188D4A1168196092889A800023C6
:100CC0003B630AE01823FA183B6BD3181B78180013
:100CD00000F072FA3B6B01333B633B6B052BF1D9A0
:100CE0000021022000F07CF9C046012000F054F9F8
:100CF0000300012BF9D07E4B1800FFF77DFCC046A6
:100D0000012000F049F9031EFAD07A4B1800FFF7D2
:100D100073FCC046012000F03FF90300012BF9D01D
:100D2000754B1800FFF768FCC046012000F034F94D
:100D3000031EFAD0714B1800FFF75EFC0121022060
:100D400000F04EF9664B1800FFF734FF1023FB1834
:100D50006B4A1168196092889A8000237B630AE0CD
:100D60001023FA187B6BD3181B78180000F024FAB4
:100D70007B6B01337B637B6B052BF1D90021022058
:100D800000F02EF9564B1800FFF714FF0021012048
:100D900000F026F9524B1800FFF70CFF012101204B
:100DA00000F01EF9C046012000F0F6F80300012B08
:100DB000F9D0C046012000F0EFF8031EFAD002215E
:100DC000022000F00DF90023FB620CE000F034FA81
:100DD000030019000823FA18FB6AD3180A1C1A70BA
:100DE000FB6A0133FB62FB6A052BEFD9454B180008
:100DF000FFF702FC0023FB620DE00823FA18FB6AF0
:100E0000D3181B781A00404B11001800FFF7F4FBB1
:100E1000FB6A0133FB62FB6A052BEED9002102203D
:100E200000F0DEF8C046012000F0B6F80300012B08
:100E3000F9D0FA239B001800FFF7BCFE0021012027
:100E400000F0CEF8FA239B001800FFF7B3FE012153
:100E5000012000F0C5F8C046012000F09DF8031EF7
:100E6000FAD00221022000F0BBF80023BB620BE0A5
:100E700000F0E2F9030019003A00BB6AD3180A1C1B
:100E80001A70BB6A0133BB62BB6A052BF0D91F4BDA
:100E90001800FFF7B1FB0023BB620CE03A00BB6A0D
:100EA000D3181B781A00184B11001800FFF7A4FB89
:100EB000BB6A0133BB62BB6A052BEFD9FEE7C046B4
:100EC0001C1500002C150000481500005C150000E2
:100ED000809698006C150000901500009815000091
:100EE00010270000AC150000D01500005C160000B3
:100EF000E4150000F0150000FC15000008160000C5
:100F00006416000014160000341600003C160000A1
:100F100080B582B000AF1B4B5A681A491A4B1800B3
:100F2000FFF7BEFC03007B607B68002B07D07A686C
:100F3000164B11001800FFF75FFB01231DE0124B59
:100F400000211800FFF7FEFD03007B607B68002B8B
:100F500007D07A680E4B11001800FFF74DFB0123F4
:100F60000BE00C4B1800FFF747FB01235A42064BDE
:100F700001211800FFF7C4FC00231800BD4602B091
:100F800080BDC046E81900005C0000206C1600001F
:100F90008C160000AC16000080B584B000AF0200D3
:100FA000FB1D1A700D4B01211800FFF7FDFC03001B
:100FB000FB60FB1D1B78022B01D1FB680AE0FB1DC7
:100FC0001B78012B04D1FB68DB080122134001E0F0
:100FD00001235B421800BD4604B080BD5C000020C8
:100FE00080B584B000AF02003960FB1D1A7002208A
:100FF000FFF7D2FF0300FB60FB681B02FB60FA688F
:10100000174B11001800FFF7F7FAFB1D1B78032B95
:1010100019D01ADC012B02D0022B0AD015E0FB6894
:10102000104A1340FB603B681B02FA681343FB60E5
:101030000CE0FB680C4A1340FB603B681B03FA683A
:101040001343FB6002E0C04600E0C046FA68074B6D
:1010500001211800FFF7FCFCC046BD4604B080BD6E
:10106000C8160000FFFEFFFFFFCFFFFF5C0000205F
:1010700080B582B000AF78607B681B681800BD4601
:1010800002B080BD80B584B000AF786039607B6805
:10109000FB60FB683A681A60C046BD4604B080BD7C
:1010A00080B584B000AF0023BB6000237B60394B68
:1010B0001B6840330A211800FFF7E4FF364B180085
:1010C000FFF79AFA334B1B6860331800FFF7D0FF25
:1010D00003003B603B689C2213433B602D4B1B6825
:1010E00060333A6811001800FFF7CCFF2B4B180053
:1010F000FFF782FA0023FB6010E0FB68DBB21033DD
:10110000D9B2274AFB68D3180A1C1A70254AFB6813
:10111000D31811221A70FB680133FB60FB68102B97
:10112000EBD9214B1800FFF767FA1A4B1B68703395
:101130000122524211001800FFF7A4FF154B1B6853
:1011400060331800FFF794FF03003B603B686222A6
:1011500013433B603B68154A13403B600D4B1B68D3
:1011600060333A6811001800FFF78CFF104B18002D
:10117000FFF742FA074B1B681C3300211800FFF7EA
:1011800081FF0C4B1800FFF737FA00231800BD460B
:1011900004B080BDF81900001C18000040180000C1
:1011A00030000020440000204C180000FFFEFFFF2C
:1011B000581800006418000080B582B000AF02002B
:1011C000FB1D1A701B4B1B68703302225242110028
:1011D0001800FFF757FFC046164B1B686433180012
:1011E000FFF746FF030008221340012BF4D0114BF8
:1011F0001B6868331A00FB1D1B7819001000FFF7ED
:1012000041FFC0460B4B1B6864331800FFF730FFEB
:10121000030004221340F5D0064B1B6870330122F3
:10122000524211001800FFF72DFFC046BD4602B024
:1012300080BDC046F819000080B582B000AF254BD4
:101240001B6870330222524211001800FFF71AFF88
:10125000C046204B1B6864331800FFF709FF0300EA
:1012600008221340012BF4D01A4B1B686833FF216E
:101270001800FFF707FFC046164B1B6864331800C1
:10128000FFF7F6FE030004221340F5D0C046114BD1
:101290001B6864331800FFF7EBFE030001221340C4
:1012A000012BF4D00B4B1B686C331800FFF7E0FEEA
:1012B0000200FB1D1A70074B1B687033012252425B
:1012C00011001800FFF7DEFEFB1D1B781800BD465D
:1012D00002B080BDF819000080B500AF034B1800C4
:1012E000FEF7FEFFFFF77AFCFEE7C046BC180000E1
:1012F00080B500AF024B034A1A60C046BD4680BDB0
:10130000FC19000040787D0110B583070AD0030066
:10131000032102E001330B4205D01A78002AF9D1EB
:10132000181A10BD030019680C4A0D4C8A188A431C
:1013300022420FD15968094A04338A188A4322424B
:1013400008D15968054A04338A188A432242F1D0E9
:1013500000E001331A78002AFBD1E1E7FFFEFEFE30
:1013600080808080303132333435363738394142ED
:101370004344454600000000320700002A080000F0
:101380002A0800002A0800002A0800002A08000095
:101390002A0800002A0800003E0700004C07000051
:1013A0002A0800002A0800002A0800002A08000075
:1013B0002A0800002A0800002A0800002A08000065
:1013C0002A0800002A0800002A0800002A08000055
:1013D0002A0800002A0800002A0800002A08000045
:1013E0002A0800002A0800002A0800002A08000035
:1013F0002A0800002A0800002A0800002A08000025
:101400002A0800002A0800002A0800002A08000014
:101410002A0800002A0800002A0800002A08000004
:101420002A0800002A0800002A0800002A080000F4
:101430002A0800002A0800002A0800002A080000E4
:101440002A0800007E0700002A0800002A08000081
:101450002A080000CE0700002A0800002A08000021
:101460002A0800002A0800002A0800002A080000B4
:10147000B8070000640700002A0800002A080000DE
:101480002A0800002A080000640700002A0800005B
:101490002A080000560700002A0800002A08000059
:1014A0002A0800007E0700002A0800002A08000021
:1014B0009E0700002A0800005C0700002A080000C0
:1014C0002A0800007E0700002E2E2F7372632F67FC
:1014D00070696F5F76345F342F7372632F78677033
:1014E000696F2E63000000002E2E2F7372632F672A
:1014F00070696F5F76345F342F7372632F78677013
:10150000696F5F73696E69742E6300000D0A61660E
:101510007465722064656C61790000000D0A5345A2
:101520003A206770696F20696E6974000D0A53452F
:101530003A2073657420636F6D6D207374617465F8
:10154000204750494F0000000D0A53453A2073656B
:10155000742048534F204849474800000D0A53451E
:101560003A2073706920696E697400000D0A534552
:101570003A207365742048534F206C6F77203B20CE
:101580007761697420485349206C6F770000000030
:1015900025387820203A20000D0A53453A20676507
:1015A0007420485349206C6F770000000D0A5345A2
:1015B000207365742048534F2068696768203B207A
:1015C00077616974204853492068696768000000A2
:1015D0000D0A5345206765742048534920686967A0
:1015E000680000000A0D524459204C4F570000007B
:1015F0000A0D524459204849474800000A0D41430A
:101600004B204C4F570000000A0D41434B204849E6
:10161000474800000A0D535049207265636569769A
:1016200065204D435520726573702068656164655F
:1016300072203A0020253278200000000A0D535015
:10164000492072656365697665204D435520726552
:1016500073702064617461203A000000FEAA550195
:1016600002FE000006000090AA5500004572726F4D
:10167000723A20584770696F5F436667496E6974B4
:1016800069616C697A652025640D0A004572726F84
:10169000723A20584770696F5F496E697469616C6E
:1016A000697A652025640D0A0000000053756363A4
:1016B0006573733A20584770696F5F496E69746942
:1016C000616C697A650D0A000D0A204750494F7711
:1016D0007269746520696E707574203A20253878B7
:1016E00020000000585370695F53746F702053746A
:1016F00061747573203D2025640A0D00585370698C
:101700005F496E697469616C697A652053746174AC
:101710007573203D2025640A0D0000005853706940
:101720005F496E697469616C697A652025640A0D88
:10173000000000004572726F723A20585370695F62
:101740005365744F7074696F6E732025640A0D00C1
:10175000585370695F5365744F7074696F6E73206E
:1017600025640A0D000000004572726F723A20581D
:101770005370695F53746172742025640A0D000010
:10178000585370695F53746172742025640A0D00A8
:10179000585370695F496E7472476C6F62616C4434
:1017A000697361626C652025640A0D004572726F71
:1017B000723A20585370695F536574536C61766553
:1017C00053656C6563742025640A0D004572726F61
:1017D000723A20585370695F5472616E7366657215
:1017E0002025640A0D000000456E64206F662053BA
:1017F0005049204150502020537461747573203D2E
:101800002025640A0D000000616674657220317342
:10181000742064656C61790D0A000000585370698A
:101820002031200A0D000000585370695F4366673D
:10183000496E697469616C697A652025640A0D00D6
:10184000585370692032200A0D0000005853706907
:101850002033200A0D000000585370692034200AFC
:101860000D000000585370692035200A0D0000005B
:10187000585370692036200A0D00000058537069D3
:101880002037200A0D000000585370692038200AC4
:101890000D00000025327820000000000A0D456E82
:1018A00064206F66205350492041505020205374CB
:1018B00061747573203D2025640A0D0048656C6CC9
:1018C0006F2066726F6D20434D312D30200D0A0060
:1018D0000020202020202020202028282828282000
:1018E00020202020202020202020202020202020F8
:1018F0002088101010101010101010101010101060
:10190000100404040404040404040410101010104F
:101910001010414141414141010101010101010119
:10192000010101010101010101010101101010106B
:1019300010104242424242420202020202020202EB
:10194000020202020202020202020202101010103F
:101950002000000000000000000000000000000067
:101960000000000000000000000000000000000077
:101970000000000000000000000000000000000067
:101980000000000000000000000000000000000057
:101990000000000000000000000000000000000047
:1019A0000000000000000000000000000000000037
:1019B0000000000000000000000000000000000027
:1019C0000000000000000000000000000000000017
:0119D0000016
:1019D40001000000000000000000004000000000C2
:1019E40000000000000000000000004000000000B3
:0C19F400000000000000A04440787D01CD
:04000003000000C039
:00000001FF
