:020000040000FA
:1000000008040020650100006D0100006F01000080
:1000100000000000000000000000000000000000E0
:10002000000000000000000000000000710100005E
:1000300000000000000000007301000075010000D6
:1000400077010000790100007B0100007D010000C4
:100050007F01000081010000830100008501000094
:10006000870100008901000000000000000000007E
:100070000000000000000000000000000000000080
:100080000000000000000000000000000000000070
:100090000000000000000000000000000000000060
:1000A0000000000000000000000000000000000050
:1000B0000000000000000000000000000000000040
:1000C00000F002F800F03EF80CA030C80838241800
:1000D0002D18A246671EAB4654465D46AC4201D180
:1000E00000F030F87E460F3E0FCCB6460126334274
:1000F00000D0FB1AA246AB4633431847200100004C
:1001000040010000103A02D378C878C1FAD85207EB
:1001100001D330C830C101D504680C6070470000BD
:100120000023002400250026103A01D378C1FBD813
:10013000520700D330C100D50B6070471FB51FBDFB
:1001400010B510BD03488546FFF7F8FF00F046F8EC
:1001500000F020F80804002003B4FFF7F1FF03BC0F
:1001600000F020F80948804709480047FEE7FEE70D
:10017000FEE7FEE7FEE7FEE7FEE7FEE7FEE7FEE757
:10018000FEE7FEE7FEE7FEE7FEE70000B501000040
:10019000C100000010B50446C046C0462046FFF727
:1001A000DBFF10BD01491820ABBEFEE726000200B0
:1001B00070470000014802490860704740787D019F
:1001C0000000002000BF00BF826808231A40082AF0
:1001D000F9D0021D1346196000BF704710B502A088
:1001E00000F010F8002010BD48656C6C6F00000036
:1001F00010B5044621460248FFF7E4FF10BD000099
:100200000000604010B5044603E02078FFF7F0FFDF
:10021000641C20780028F8D110BD00003C020000CA
:100220000000002004000000040100004002000063
:1002300004000020040400002001000040787D013B
:040000050000016591
:00000001FF
