:1000000090060020C1000000F3000000F300000093
:1000100000000000000000000000000000000000E0
:10002000000000000000000000000000F3000000DD
:100030000000000000000000F3000000F3000000DA
:100040005905000067050000750500007F050000E8
:1000500000000000000000000000000000000000A0
:100060000000000000000000000000000000000090
:100070000000000000000000000000000000000080
:100080000000000000000000000000000000000070
:100090000000000000000000000000000000000060
:1000A0000000000000000000000000000000000050
:1000B0000000000000000000000000000000000040
:1000C0000C480D490D4A03E003680B60043004310D
:1000D0009142F9DB0A490B4A0020914203D00860A3
:1000E00004319142FBD108488546084880470848BA
:1000F0000047FEE7B80500000000002028000020AF
:10010000280000202800002090060020A105000003
:100110008D05000080B582B000AF7860034B1B688E
:100120007A681A60C046BD4602B080BDB8050000BE
:1001300080B582B000AF0200FB1D1A70FB1D1B785A
:100140001A001F23134001229A401300044A190089
:10015000C0235B00D150C046BD4602B080BDC04642
:1001600000E100E080B500AF024B1B681B6818007F
:10017000BD4680BDBC05000080B582B000AF020066
:10018000FB1D1A700E4B1B68092B14D80D4B1B68F6
:10019000591C0C4A11600C4AF91D0978D154094BBD
:1001A0001B680A2B02D1074B00221A60044B1B6804
:1001B0005A1C034B1A60C046BD4602B080BDC04603
:1001C0003C000020380000202C00002080B582B0C8
:1001D00000AF1B4B1B685A1CFF32194B1A60FFF70C
:1001E000C1FF03007B607B68012213400AD002201C
:1001F000FFF7C2FF124B1B68802252029A18104B65
:100200001A6009E00120FFF7B7FF0D4B1B68802241
:1002100052049A180A4B1A60094B1B681800FFF722
:1002200079FF084B00221A60074B1B6801221A60F5
:100230000020FFF77DFFC046BD4602B080BDC0462E
:100240004000002028000020C005000080B582B0DA
:1002500000AF0200FB1D1A70FB1D1B781A001F2344
:10026000134001229A401300044A1900C0235B0086
:10027000D150C046BD4602B080BDC04600E100E09E
:1002800080B500AF0A4B1B68012B07D1094B180042
:10029000FFF740FF064B00221A6006E0064B1800ED
:1002A000FFF738FF024B01221A60C046BD4680BDF1
:1002B000CC050000111111112222222280B582B03A
:1002C00000AF1E4B1B681B687B601D4B1B681B68C7
:1002D0001800FFF71FFF7B68402213402AD07A687E
:1002E00080235B00134025D0FFF7CAFF134B1B6828
:1002F0001B687B607B681022134011D17B68012250
:1003000013400DD17B68802293437B600B4B1B68AD
:100310007A6820210A431A60084B1B687A681A60C1
:10032000064B1B687A68802149000A431A60012045
:10033000FFF78CFFC046BD4602B080BDC40500007B
:10034000C805000080B582B000AF0200FB1D1A7026
:10035000FB1D1B781A001F23134001229A40130033
:10036000044A1900C0235B00D150C046BD4602B00C
:1003700080BDC04600E100E080B582B000AF78608B
:1003800039607B6801337B607A683B689A4201D1AF
:10039000002300E07B681800BD4602B080BD00006D
:1003A00080B584B000AF78602D4B1B68002B01D165
:1003B000002350E02B4B1B68DA002B4BD318FB605B
:1003C000FB681A68FB685B68D2180B217B181278EF
:1003D0001A700A00BB181B78002B0AD07B68BA1869
:1003E00012781A70FB685B685A1CFB685A6001231C
:1003F00031E01C4B1B6828211800FFF7BDFF0200ED
:10040000184B1A60164B1B68013B154A1360002BF2
:1004100001D100231FE0134B1B68DA00124BD318E5
:10042000FB60FB681A68FB685B68D2180B217B18BD
:1004300012781A700A00BB181B78002B0AD07B6850
:10044000BA1812781A70FB685B685A1CFB685A600D
:10045000012300E000231800BD4604B080BDC04663
:100460008C010020880100204800002080B582B067
:1004700000AF184B1B681A68FB1D1A70164B1B68DF
:1004800000221A60BB1DFA1D12781A7009E07B1D4C
:100490001A78124B1B681A600E4B1B681A68FB1DFA
:1004A0001A70FB1D1B780822134005D17B1D180014
:1004B000FFF776FF031EEAD1BB1DBA1D127810218B
:1004C0000A401A70044B1B6810221A60C046BD46D1
:1004D00002B080BDD4050000D8050000D0050000A2
:1004E00080B500AFC046BD4680BD000080B582B07B
:1004F00000AF174B1B681A68FB1D1A70154B1B6861
:100500005A1CFF32134B1A60FB1D1B780322134049
:1005100008D0FFF7E5FF0F4B1B68802252029A18A4
:100520000C4B1A60FB1D1B780422134008D0FFF708
:100530009DFF084B1B68802252049A18054B1A60D5
:100540000320FFF7FFFEC046BD4602B080BDC04697
:10055000D40500004400002080B500AFFFF736FE50
:10056000C046BD4680BD80B500AFFFF7A7FEC046C0
:10057000BD4680BD80B500AFC046BD4680BD80B5DC
:1005800000AFFFF7B3FFC046BD4680BD80B500AFEA
:10059000024B1800FFF7BEFDFEE7C0467856341246
:1005A00080B500AF024B034A1A60C046BD4680BD0D
:0805B000DC05000040787D012C
:1005B8000000014000000040200100400000C04150
:1005C8000800C041010000000400604008006040CD
:0805D8000C00604040787D0139
:04000003000000C039
:00000001FF
